:020000040000FA
:06000000DDEF33F01200F9
:06100000DDEF33F01200E9
:06102A0001002A6800002D
:08103000600000002B0000002D
:08103800D9CFE6FFE1CFD9FF9B
:10104000E6520001686B7F0E696F6A69C70E6B6FAD
:10105000926893689468DF6ADFCF10F0050EE76E40
:101060001018E8AE02D0E73402D0E750105C01E37C
:101070007BD0DFCFE9FFEA6AE9BEEA68040ED890C8
:10108000E936EA36E806FBE1820EE926010EEA229D
:10109000EF6ADFCFE9FFEA6AE9BEEA68040ED8909A
:1010A000E936EA36E806FBE1820EE926010EEA227D
:1010B000EE52EF6ADFCFE9FFEA6AE9BEEA68040EA2
:1010C000D890E936EA36E806FBE1820EE926010E01
:1010D000EA22020EE926000EEA22EF6ADFCFE9FFDC
:1010E000EA6AE9BEEA68040ED890E936EA36E8060C
:1010F000FBE1820EE926010EEA22030EE926000E2C
:10110000EA22010EEF6EDFCFE9FFEA6AE9BEEA6884
:10111000040ED890E936EA36E806FBE1820EE926AD
:10112000010EEA22040EE926000EEA22EE6AED6ABA
:10113000DFCFE9FFEA6AE9BEEA68040ED890E93633
:10114000EA36E806FBE1820EE926010EEA22060EE7
:10115000E926000EEA22EE6AED6ADFCFE6FF26EC12
:101160001AF0E552DF2A78D7DF6ADFCF10F0050EDC
:10117000E76E1018E8AE02D0E73402D0E750105CFA
:101180005AE2DFCFE9FFEA6AE9BEEA68050EEA0241
:10119000F3CFEAFFE902F3CFE9FFF450EA26D20EDB
:1011A000E926010EEA22EF6ADFCFE9FFEA6AE9BE2B
:1011B000EA68050EEA02F3CFEAFFE902F3CFE9FF9E
:1011C000F450EA26D20EE926010EEA22EE52EF6A28
:1011D000DFCFE9FFEA6AE9BEEA68050EEA02F3CF6B
:1011E000EAFFE902F3CFE9FFF450EA26D20EE9263E
:1011F000010EEA22020EE926000EEA22010EEF6E2F
:10120000DFCFE9FFEA6AE9BEEA68050EEA02F3CF3A
:10121000EAFFE902F3CFE9FFF450EA26D20EE9260D
:10122000010EEA22030EE926000EEA22010EEE6EFE
:10123000ED6ADF2A9AD7E552E552E7CFD9FF1200CF
:10124000060E0001B65D03E36D50020B01E001D014
:101250009AD91200D9CFE6FFE1CFD9FFFE0EDB50BD
:10126000230802E1FD0E4BD0FE0EDB5002E1FE0E24
:1012700046D0FE0EDB500A0802E1FE0E40D0FE0E04
:10128000DB500D0802E1FE0E3AD00001626B300E19
:10129000F36EFE0EDBCFF4FFF350F45C02E2FF0EC0
:1012A0002ED0FE0EDB50390804E3300E626F000EC4
:1012B00026D0410EF36EFE0EDBCFF4FFF350F45C4C
:1012C00002E2FF0E1CD0FE0EDB50460804E3370E90
:1012D000626F000E14D0610EF36EFE0EDBCFF4FFD2
:1012E000F350F45C02E2FF0E0AD0FE0EDB506608FB
:1012F00004E3570E626F000E02D0FF0E00D0E552DD
:10130000E7CFD9FF12000101406B00016151EA6A89
:10131000000FE96E010EEA22EF50E66E9BDFE55208
:10132000FF0803E10001612BF0D700016151EA6A77
:10133000000FE96E010EEA22EF50E66E8BDFE552F8
:10134000FE0802E1FF0E22D000016151EA6A000F9F
:10135000E96E010EEA22EF50E66E7CDFE5520009ED
:1013600013E101014039F00B406F00016151EA6A5D
:10137000000FE96E010EEA22EF50D880625501019C
:1013800040270001612BE0D7000E00D012000001C1
:10139000616B00018B510001615D66E26151EA6A97
:1013A000000FE96E010EEA22EF50E66E53DFE552C0
:1013B000000A43E0FF0A31E0010A1AE0030A01E0F3
:1013C00050D00001606B400E605D09E26051EA6A36
:1013D000420FE96E010EEA22EF6A602BF4D7606BD0
:1013E000636B0101406B0001646B010E656F39D0C6
:1013F000000164050AE16051EA6A420FE96E010EDC
:10140000EA2240C1EFFF602B646B0101406B0001D9
:10141000650502E1010E636F24D0000164050AE155
:101420006051EA6A420FE96E010EEA2240C1EFFF05
:10143000602B646B0101406B14D001014039F00B4B
:10144000406F00016151EA6A000FE96E010EEA2265
:10145000EF50D8806255010140270001010E646FF2
:1014600000D00001612B95D71200D9CFE6FFE1CF64
:10147000D9FF0A0EF36EFE0EDBCFF4FFF350F45CDF
:1014800004E2FE0EDB50300F05D0FE0EDB50F60FEF
:10149000410F00D0E552E7CFD9FF1200D9CFE6FFC8
:1014A000E1CFD9FFE6520001616B400E615D09E2B8
:1014B0006151EA6A000FE96E010EEA22EF6A612BC0
:1014C000F4D7010E616F606B0101400E006F0001E7
:1014D000606B100E605D37E26051EA6A420FE96EA0
:1014E000010EEA22EFCFDFFFF00EDF14E8380F0B1A
:1014F000E66EBBDFE552E66E00016151EA6A000F5D
:10150000E96E010EEA22E552E750EF6E612B0F0EF5
:10151000DF14E66EAADFE552E66E00016151EA6A69
:10152000000FE96E010EEA22E552E750EF6E612BE3
:101530006151EA6A000FE96E010EEA222D0EEF6E8C
:10154000612B602BC6D76151EA6A000FE96E010E6C
:10155000EA220A0EEF6E612B6151EA6A000FE96E12
:10156000010EEA220D0EEF6E612B6151EA6A000F47
:10157000E96E010EEA22EF6A61C041F1E552E552DF
:10158000E7CFD9FF1200D9CFE6FFE1CFD9FF050E93
:10159000E126400EE66E000EE66E010EE66E43ECAE
:1015A0002CF0E552E552E552000901E0F0DE0001C1
:1015B000630501E0E9D00101416B0001636B0101AA
:1015C0004251FF0A01E1A5D0960A01E19FD0010A2C
:1015D00001E199D00D0A01E193D0010A01E18DD01A
:1015E000070A01E184D0010A01E17BD0030A73E01C
:1015F000010A6BE03C0A63E0030A5BE0010A53E086
:10160000030A4BE0070A46E0020A41E00F0A3CE009
:10161000010A37E0030A32E0330A2DE0010A28E02C
:10162000340A23E0070A1EE00D0A19E00B0A15E050
:10163000030A11E0010A0DE0500A01E08CD001011B
:10164000090E446F0101020E456F0101040E416F46
:1016500088D0F3D886D0A2D984D0A5DA82D0EAEC9B
:101660000FF07FD007EC12F07CD054EC13F079D05F
:1016700078EC14F076D0DEEC14F073D044EC16F075
:1016800070D044EC16F06DD092EC17F06AD047ECB5
:1016900018F067D0FCEC18F064D0010EE66E41EC57
:1016A0001CF0E5525ED0020EE66E41EC1CF0E552F5
:1016B00058D0030EE66E41EC1CF0E55252D0040EF9
:1016C000E66E41EC1CF0E5524CD0010EE66EEDECFE
:1016D00021F0E55246D0020EE66EEDEC21F0E55227
:1016E00040D0030EE66EEDEC21F0E5523AD0040E48
:1016F000E66EEDEC21F0E55234D026EC25F031D049
:1017000064EC25F02ED010EC28F02BD067EC28F0FC
:1017100028D06D96010EDB6A020EDB6A010EDB0635
:10172000DBCF10F0020E01E2DB06DBCF11F0105030
:10173000111001E0F3D7FA0EE66EE66A1EEC29F00E
:10174000E552E552FA0EE66EE66A1EEC29F0E55225
:10175000E552FF0006D0010142690101100E416F00
:1017600000D00101415110E099DE00018C510CE1E3
:101770000001000E8D6F010E8E6F41C191F00001CE
:10178000926B0001010E8C6F0001730502E133ECD6
:1017900011F00101930505E1010EE66EA6EC20F0C3
:1017A000E5520101A30505E1020EE66EA6EC20F06C
:1017B000E5520101B30505E1030EE66EA6EC20F04B
:1017C000E5520101C30505E1040EE66EA6EC20F02A
:1017D000E5520101D75105E0010EE66E5CEC24F004
:1017E000E5520101DC5105E0020EE66E5CEC24F0EE
:1017F000E5520101E15105E0030EE66E5CEC24F0D8
:10180000E5520101E65105E0040EE66E5CEC24F0C1
:10181000E5520001750502E1A2EC25F000017F050B
:1018200002E115EC27F0050EE15C02E2E16AE55207
:10183000E16EE552E7CFD9FF120001014351110AD1
:1018400001E193D0160A01E17ED0010A6DE0030A9E
:1018500059E0010A48E0070A3FE0010A22E0030AD2
:101860000BE0010A01E096D00001695192126A5121
:1018700093126B5194128ED0445100016915926EEF
:101880000101455100016A15936E010146510001A5
:101890006B15946E010147A102D0F19E01D0F18E2B
:1018A00079D0445100016915106E691D891410101A
:1018B000896E0101455100016A15106E6A1D8A1476
:1018C00010108A6E0101465100016B15106E6B1DE0
:1018D0008B1410108B6E5ED080CF44F181CF45F118
:1018E00082CF46F157D0445100016915921201018F
:1018F000455100016A1593120101465100016B1513
:10190000941248D0445100016915E81C9216010157
:10191000455100016A15E81C93160101465100016A
:101920006B15E81C941636D04451000169158912D4
:101930000101455100016A158A1201014651000159
:101940006B158B1227D0445100016915E81C8916CC
:101950000101455100016A15E81C8A160101465132
:1019600000016B15E81C8B1615D044510001691558
:10197000926E0101455100016A15936E01014651B5
:1019800000016B15946E010147A102D0F19E01D0B8
:10199000F18E00D00101100E416F1200D9CFE6FF89
:1019A000E1CFD9FFE65201014351030A01E1EBD037
:1019B000010A01E1D4D0030A0EE0010A01E0EBD0F4
:1019C000C26A0F0EC16E00016C5169136D516A132A
:1019D0006C6B6D6BE0D0C26AAA0EC06E44510A0AED
:1019E00001E19AD0030A01E186D0010A73E00F0AEF
:1019F00060E0010A4EE0030A42E0010A35E0070A0E
:101A000028E0010A1BE0030A0FE0010A01E094D07C
:101A10000F0EC16ED00E000169152F09696FE00E1F
:101A20006A151F096A6F88D0928000016C81D00E00
:101A300069152E09696F0E0EC16E7ED0030E9212CB
:101A400000016C13D00E69152C09696F0D0EC16E63
:101A500073D0070E921200016C13D00E691528097D
:101A6000696F0C0EC16E68D00F0E921200016C13DC
:101A7000D00E69152009696F0B0EC16E5DD02F0E57
:101A8000921200016C13D00E6915696F0A0EC16EB7
:101A900053D02F0E921200016C13D00E6915696F8E
:101AA00093846D85E00E6A151B096A6F060EC16E80
:101AB00043D02F0E921200016C13D00E6915696F7E
:101AC0000C0E93126D13E00E6A1513096A6F050E62
:101AD000C16E32D02F0E921200016C13D00E691518
:101AE000696F0E0E93126D13E00E6A1511096A6F7D
:101AF000040EC16E21D02F0E921200016C13D00E75
:101B00006915696F1E0E93126D13E00E6A150109B7
:101B10006A6F030EC16E10D02F0E921200016C136B
:101B2000D00E6915696F1F0E93126D13E00E6A15C2
:101B30006A6F020EC16E00D001014551030A09E02F
:101B4000010A05E0030A01E007D0C18805D0C18A77
:101B500003D0300EC11200D0010EC26E1CD044C1A1
:101B6000DFFFDF50040802E2030EDF26DF50040D22
:101B7000F3500109C26E280EE66EE66ABFEC28F04B
:101B8000E552E55208D0C282C2B2FED7C3CF44F1BB
:101B9000C4CF45F100D00101100E416FE552E5526E
:101BA000E7CFD9FF1200D9CFE6FFE1CFD9FF0B0E67
:101BB000E12601014351050A01E182D0060A0AE04B
:101BC000010A07E0030A04E0010A01E0F6D1F5D1B9
:101BD000F4D1F3D192884451080A29E00F0A24E095
:101BE000010A1FE0030A1AE0010A15E0070A10E0E3
:101BF000010A0BE0030A06E0010A01E01BD0200EF7
:101C0000D56E18D0210ED56E15D0220ED56E12D0FD
:101C1000230ED56E0FD0240ED56E0CD0250ED56EAA
:101C200009D0260ED56E06D0270ED56E03D0280E0D
:101C3000D56E00D0D76AD66AF294D58E4551030A84
:101C40001FE0010A15E0030A0BE0010A01E02ED0B3
:101C50000A0EE66EE66A1EEC29F0E552E55226D041
:101C6000010EE66EE66A1EEC29F0E552E5521ED042
:101C70000A0EE66EE66A1EEC29F0E552E55216D031
:101C8000630EE66EE66A1EEC29F0E552E552E66860
:101C9000030EE66EBFEC28F0E552E5520C0EE66E40
:101CA000E66ABFEC28F0E552E55200D0D59ED6CFCB
:101CB00044F1D7CF45F1F2A402D0010142697DD1B0
:101CC0009288270ED56ED76AD66AF294D58E010E09
:101CD000E66EE66A1EEC29F0E552E552D59E080E46
:101CE000D6CFDBFFDB50106E116A113404E21050C6
:101CF0009C08000E115403E2260ED56E72D0080E19
:101D0000DB50106E116A113404E210509C08000E72
:101D100011540AE2260ED56E800EF36E090EF3CF33
:101D2000DBFF0A0EDB6A5DD0080EDB504E080AE2CC
:101D3000250ED56E400EF36E090EF3CFDBFF0A0EB3
:101D4000DB6A4FD0080EDB5027080AE2240ED56E5E
:101D5000200EF36E090EF3CFDBFF0A0EDB6A41D0D3
:101D6000080EDB5013080AE2230ED56E100EF36E38
:101D7000090EF3CFDBFF0A0EDB6A33D0080EDB500F
:101D800009080AE2220ED56E080EF36E090EF3CF93
:101D9000DBFF0A0EDB6A25D0080EDB5004080AE2DE
:101DA000210ED56E040EF36E090EF3CFDBFF0A0E83
:101DB000DB6A17D0080EDB5002080AE2200ED56E4F
:101DC000020EF36E090EF3CFDBFF0A0EDB6A09D0B9
:101DD000280ED56E010EF36E090EF3CFDBFF0A0E4F
:101DE000DB6AD76AD66AF294D58E630EE66EE66A2F
:101DF0001EEC29F0E552E552E668030EE66EBFECF4
:101E000028F0E552E5520C0EE66EE66ABFEC28F0CB
:101E1000E552E552D59E040ED6CFDBFF050EDB6AF8
:101E2000060EDB6A070EDB6A000ED7CFDFFF010E5E
:101E3000DB6A020EDB6A030EDB6AD9CFE9FFDACF79
:101E4000EAFFEF50EE6AEFCFF4FFEE6EEF50F4CF03
:101E5000EEFFEF6ED9CFE9FFDACFEAFF040EDB50D9
:101E6000EE26050EDB50EE22060EDB50EE22070EAC
:101E7000DB50EE22D9CFE9FFDACFEAFF0A0E096E76
:101E80000A6A0B6A0C6AEECF04F0EECF05F0EECFD3
:101E900006F0EFCF07F041EC31F003C0EDFF02C0D8
:101EA000EDFF01C0EDFF00C0EFFF090EDBCF10F02A
:101EB0000A0EDBCF11F0126A136AD9CFE9FFDACF2D
:101EC000EAFF10C009F011C00AF012C00BF013C0F5
:101ED0000CF0EECF04F0EECF05F0EECF06F0EFCF32
:101EE00007F041EC31F003C0EDFF02C0EDFF01C08F
:101EF000EDFF00C0EFFFD9CFE9FFDACFEAFFEECF69
:101F000010F0EECF11F0EECF12F0EFCF13F0105033
:101F10000101446F106A1168126A136AD9CFE9FF90
:101F2000DACFEAFFEE501016EE501116EE501216F0
:101F3000EE501316080ED8901332123211321032AE
:101F4000E806F9E110C045F1106A116A1268136AD7
:101F5000D9CFE9FFDACFEAFFEE501016EE50111696
:101F6000EE501216EE501316100ED8901332123295
:101F700011321032E806F9E110C046F1106A116A18
:101F8000126A1368D9CFE9FFDACFEAFFEE501016D4
:101F9000EE501116EE501216EE501316180ED89081
:101FA0001332123211321032E806F9E110C047F153
:101FB000F2A402D00101426900D00101100E416F6C
:101FC0000B0EE15C02E2E16AE552E16EE552E7CF19
:101FD000D9FF1200D9CFE6FFE1CFD9FF030EE126EA
:101FE0003C0EDF6E01014351070A01E12CD1010AC9
:101FF00001E126D1030A01E1BFD0010A01E19DD030
:10200000070A6FE0010A65E0030A0DE0010A01E03A
:102010001DD14F0EAB16AC9ACF0E9D16C00E00010F
:102020006B13736B13D10F0E4415040A35E0070AC6
:1020300028E0010A1BE0030A0EE0010A01E038D0A3
:102040009B0EE66EE66ADFCFE6FF88EC30F0E552E5
:10205000E552E5522DD0190EE66EE66ADFCFE6FFB7
:1020600088EC30F0E552E552E55222D0330EE66EB0
:10207000E66ADFCFE6FF88EC30F0E552E552E55244
:1020800017D09B0EE66EE66ADFCFE6FF88EC30F0F5
:10209000E552E552E5520CD04D0EE66EE66AEF0EC3
:1020A000DF14E66E88EC30F0E552E552E55200D0E0
:1020B000010144BF04D0CF0EB814B86E03D0300E67
:1020C000B810B86E3F0E00016B17746B010E736F82
:1020D000BDD0ACA2FED744C1E6FF8FEC33F0E55291
:1020E000B5D00001745126E0EBC144F1010EDB6A6A
:1020F0007451F36E010EDBCFF4FFF350F45C16E283
:10210000010EDB28EA6AEB0FE96E010EEA22EF50BE
:10211000E66E010EDB50EA6AEB0FE96E010EEA2271
:10212000E552E750EF6E010EDB2AE2D7740701019A
:10213000426B02D00101426989D0DE52030EDD6E8E
:10214000030E01014425F36E010EDBCFF4FFF350C3
:10215000F45C11E2ACA2FED7010EDB50EA6A420F3A
:10216000E96E010EEA22EF50E66E8FEC33F0E55295
:10217000010EDB2AE5D76AD0000174515EE0020E41
:1021800044C1DBFFDB500D0805E20D0EF36E020EBD
:10219000F3CFDBFF020EDBCF10F07451D880105468
:1021A00003E2020E74C0DBFF010EDB6A7451F36EB2
:1021B000010EDBCFF4FFF350F45C38E2020EDB508B
:1021C000F36E010EDBCFF4FFF350F45C14E2010E6A
:1021D000DB50EA6AEB0FE96E010EEA22EF50E66E81
:1021E000010EDB50030FEA6A420FE96E010EEA228C
:1021F000E552E750EF6E020EDBCFE6FF010EDB503B
:10220000E552E724EA6AEB0FE96E010EEA22EF508D
:10221000E66E010EDB50EA6AEB0FE96E010EEA2270
:10222000E552E750EF6E010EDB2AC0D7020EDB50FD
:10223000745F020EDBCF44F102D00101446B06D083
:1022400074C044F103D00001746B00D00101100E82
:10225000416F030EE15C02E2E16AE552E16EE55294
:10226000E7CFD9FF120000017451106E116A150EEC
:10227000105C000E115801E315D09EAA0ED02AEC76
:1022800032F0E66E00017451742BEA6AEB0FE96ECE
:10229000010EEA22E552E750EF6E0001BDA702D021
:1022A000AB98AB881200D9CFE6FFE1CFD9FFE65259
:1022B000DF6A0A0EDF5C02E3000E01D0010E106E31
:1022C0009E50080B080A01E0010E101409E0640E8C
:1022D000E66EE66ABFEC28F0E552E552DF2AE9D760
:1022E0000A0EDF5C02E3FF0E03D09E96000E00D0C4
:1022F000E552E552E7CFD9FF12009E96C58053EF15
:1023000011F0C5841200D9CFE6FFE1CFD9FFFE0E50
:10231000DBCFE6FF08EC31F0E55203EC34F0E55298
:10232000E7CFD9FF1200D9CFE6FFE1CFD9FFFD0EED
:10233000DBCFF3FFDB06F35000091FE0EBEC33F0DB
:10234000E66EFE0EDB50EA6A420FE96E010EEA22EB
:10235000E552E750EF6EFE0EDB2AC5B6FED7A1A60A
:1023600002D0FF0E0CD0FD0EDB5002E0C59A01D06A
:10237000C58AC588C5B8FED7DAD7000E00D0E552A9
:10238000E7CFD9FF1200D9CFE6FFE1CFD9FFFD0E8D
:10239000DBCFF3FFDB06F350000933E0C6A619D00C
:1023A000FE0EDB50EA6A420FE96E010EEA22EF50A0
:1023B000E66E08EC31F0E552000902E0FD0E23D094
:1023C000FE0EDB2A03EC34F0C5AC02D0FE0E1BD0AF
:1023D00017D09E96FE0EDB50EA6A420FE96E010EA0
:1023E000EA22EF50C96EFE0EDB2AC6889EA6FED7F3
:1023F000C750040B05E1C750010B02E1FE0E03D0EC
:10240000C6D7000E00D0E552E7CFD9FF1200D9CFD2
:10241000E6FFE1CFD9FF020EE12601014351150A83
:1024200001E1D1D0010A01E1B5D0070A01E19AD05A
:10243000010A01E17FD0170A6AE0010A54E0070AA5
:102440003FE0010A2BE0030A08E0010A01E0D3D0D3
:10245000C69A030E00016A13CED03F0EC716C66A95
:10246000C56AC68693829380C68A770EC86E455128
:10247000020A0CE0030A07E0010A01E00BD0C78E54
:10248000770EC86E07D01D0EC86E04D0C78E0B0E17
:10249000C86E00D0FC0E00016A17ADD02EDF01011E
:1024A0004451E824E66E2FDFE552010EE66E030E7E
:1024B000E66E69DFE552E5520101426F22DF9BD0F3
:1024C0001CDF01014451E8240109E66E1CDFE552DE
:1024D000010EE66E020EE66E26DFE552E5520101C0
:1024E000426F0FDF88D009DF010E45C1DBFF01011C
:1024F0004451E824456F010EDB28E66E030EE66EBC
:1025000042DFE552E5520101426FFBDE74D0F5DE99
:1025100001014451E8240109E66EF5DEE55245C1AA
:10252000E6FF040EE66EFFDEE552E5520101426F62
:10253000E8DE61D0E2DE030E01014415E824F00973
:10254000E66EE1DEE55245C1E6FFDDDEE552010E55
:10255000E66E040EE66E17DFE552E5520101426FAA
:10256000D0DE49D0CADE030E01014415E824F1098A
:10257000E66EC9DEE55245C1E6FFC5DEE552010E55
:10258000E66E020EE66ECFDEE552E5520101426FC5
:10259000B8DE31D0B2DE010E46C1DBFF45C146F1E7
:1025A000030E01014415E824F009456F010EDB50CC
:1025B000020FE66E030EE66EE6DEE552E55201011D
:1025C000426F9FDE18D099DE030E01014415E82406
:1025D000F109E66E98DEE55245C1E6FF94DEE5526C
:1025E00046C1E6FF050EE66E9EDEE552E5520101AC
:1025F000426F87DE00D00101100E416F020EE15CD8
:1026000002E2E16AE552E16EE552E7CFD9FF12003E
:10261000D9CFE6FFE1CFD9FFE652DF6AFE0EDB50ED
:102620000F0B060A1AE0030A15E0010A10E0070A78
:102630000BE0010A06E0030A01E012D0040EDF6E8F
:102640000FD0080EDF6E0CD0100EDF6E09D0200EFA
:10265000DF6E06D0400EDF6E03D0800EDF6E00D03E
:10266000DF5000D0E552E552E7CFD9FF1200D9CFB5
:10267000E6FFE1CFD9FFFE0EDBCFE6FFC9DFE55273
:10268000E81C8A16E552E7CFD9FF1200D9CFE6FF42
:10269000E1CFD9FFFE0EDBCFE6FFBADFE5528A12AB
:1026A000E552E7CFD9FF1200D9CFE6FFE1CFD9FF3E
:1026B000050EE12601014351040A01E1D2D0070AC7
:1026C00001E1C0D0010A01E1A6D0030A0FE0010A2E
:1026D00001E001D1C69A030E00016A136B8F6E519F
:1026E00001E0698B6F516A136F6BF5D000016F6B5E
:1026F000020EDF6E010EDB6A800EF36E020EF3CF68
:10270000DBFF6E6B01014451060A1FE0030A19E06A
:10271000010A13E0070A0DE0010A07E0030A01E0DD
:1027200018D00001040E6F6F14D000010C0E6F6FF3
:1027300010D000011C0E6F6F0CD000013C0E6F6FAB
:1027400008D000017C0E6F6F04D00001FC0E6F6F8B
:1027500000D001014551060A17E0030A0FE0060AFE
:102760000AE0010A05E0030A01E011D0DF6A0FD098
:10277000010EDF6E0CD0020EDF6E09D0040EDF6E8C
:102780000001010E6E6F03D0050EDF6E00D0010157
:102790004651040A12E0070A0CE0010A06E0030AA7
:1027A00001E00FD0010EDB6A0CD0DE52010EDD6EAF
:1027B00008D0DE52020EDD6E04D0DE52030EDD6E56
:1027C00000D04751020A09E0030A01E009D0800E57
:1027D000F36E020EF3CFDBFF03D0020EDB6A00D0F4
:1027E000020EDBCFE6FF010EDBCFE6FFDFCFE6FF19
:1027F00079EC31F0E552E552E552FC0E00016A1722
:102800006B9F6E5101E0699B6F1D6A176F1D9316D8
:102810006F518A1260D044C1E6FF29DFE5529E96CF
:1028200045C1C9FFC6AE03D00101456904D09EA6CB
:10283000FED70101456B44BD04D044C1E6FF26DF4D
:10284000E55249D044C1E6FF12DFE552A6EC33F071
:102850000101456F44BD04D044C1E6FF17DFE552D6
:102860003AD0030E45C1DBFF456B040EF36EF3CF88
:10287000DBFF030EDB50040FF36E040EDBCFF4FF1F
:10288000F350F45C20E244C1E6FFF1DEE5529E968F
:10289000040EDB50EA6A420FE96E010EEA22EF50A5
:1028A000C96EC6AE03D00101456902D09EA6FED70F
:1028B000800E0101445D04E344C1E6FFE7DEE5521A
:1028C000040EDB2AD6D7010144BD04D044C1E6FF83
:1028D000DDDEE55200D00101100E416F050EE15C16
:1028E00002E2E16AE552E16EE552E7CFD9FF12005C
:1028F000D9CFE6FFE1CFD9FF020EE1260101435116
:10290000030A3FE0010A32E0030A09E0010A01E09C
:1029100048D0C69A030E00016A136B8F42D044510F
:10292000030A19E0010A11E0030A09E0010A01E0C3
:1029300018D0120EE66E60EC33F0E55212D0100E95
:10294000E66E60EC33F0E5520CD0110EE66E60ECF2
:1029500033F0E55206D0120EE66E60EC33F0E5522D
:1029600000D0FC0E00016A176B9F1BD044C1E6FF2C
:102970002FEC33F0E5520101450502E181A0FED7BD
:1029800010D044C1DFFF010E45C1DBFFDBCFE6FF06
:10299000DFCFE6FF87EC32F0E552E5520101446FEC
:1029A00000D00101100E416F020EE15C02E2E16A0B
:1029B000E552E16EE552E7CFD9FF1200D9CFE6FF2D
:1029C000E1CFD9FF040EE12601014351020A44E0A0
:1029D000010A42E0020A09E0010A01E0B8D0030E50
:1029E00000016A13800E6B17B2D0030E441500016C
:1029F000706F100E01014415E8380F0B0001716F64
:102A0000C00E01014415C00A13E0400A0DE0C00ADF
:102A100007E0400A01E010D000010A0E726F0CD0EE
:102A20000001640E726F08D00001E80E726F04D0CE
:102A30000001100E726F00D0FC0E00016A176B9F30
:102A400093929380949E700503E0030E705D02E103
:102A50008A8201D08A927BD0030EDF6E0101442569
:102A6000DF5C6BE2DF50EA6A420FE96E010EEA2298
:102A7000020EEFCFDBFF030EDB6ADE52800EDD6E4F
:102A8000010EDB5000084EE20001705103E0030E1E
:102A9000705D02E18A8201D08A92020EDBCFE6FFEE
:102AA000010EDB50E552E71402E08B8E01D08B9EC5
:102AB0007251E66EE66ABFEC28F0E552E55200017D
:102AC00071050BE18AA009D0030EDBCFE7FF010EF1
:102AD000DB50E712030EE7CFDBFF705103E0030E7C
:102AE000705D02E18A9201D08A827251E66EE66AD6
:102AF000BFEC28F0E552E552000171510BE18AA0CC
:102B000009D0030EDBCFE7FF010EDB50E712030E07
:102B1000E7CFDBFF010EDBCFF3FFF390F342F3CF00
:102B2000DBFFAED7DF50EA6A420FE96E010EEA2200
:102B3000030EDBCFEFFFDF2A91D70001700503E022
:102B4000030E705D02E18A8201D08A9200D00101F9
:102B5000100E416F040EE15C02E2E16AE552E16EA3
:102B6000E552E7CFD9FF120001014251560A05E0B4
:102B7000030A01E004D08A8002D08B8000D0640E6A
:102B8000E66EE66ABFEC28F0E552E552120001015C
:102B90004251560A05E0030A01E004D08A9002D0AF
:102BA0008B9000D0640EE66EE66ABFEC28F0E5522A
:102BB000E5521200D9CFE6FFE1CFD9FFE652F00E81
:102BC00093128A868A94640EE66EE66ABFEC28F059
:102BD000E552E552C9DF8150DF6ED9DFC5DFD7DFAF
:102BE000DF8E010E0009F6E10F0E93168A96E5526C
:102BF000E552E7CFD9FF1200D9CFE6FFE1CFD9FFE9
:102C0000FE0EDB50F00B106E0F0E8A1410108A6E41
:102C1000ABDFBDDFFE0EDB500F0B100DF3CF10F05E
:102C20000F0E8A1410108A6E9FDFB1DFE552E7CFD6
:102C3000D9FF1200D9CFE6FFE1CFD9FF8A84FE0E7B
:102C4000DBCFE6FFD9DFE552E552E7CFD9FF12002F
:102C5000D9CFE6FFE1CFD9FF8A94FE0EDBCFE6FFA6
:102C6000CBDFE552E552E7CFD9FF1200D9CFE6FF1F
:102C7000E1CFD9FF8A94FE0EDBCFE6FFBDDFE55240
:102C8000E552E7CFD9FF1200D9CFE6FFE1CFD9FF58
:102C9000020EE12601014351060A01E10BD1030AAC
:102CA00001E1F4D0010A01E1DDD0070A01E1CAD057
:102CB000010A01E1C2D0030A16E0010A01E025D1B0
:102CC0004251560A08E0030A01E00CD0FD0E9312AF
:102CD00000016A1307D09480FC0E931200016B81EF
:102CE0006A1300D012D144C166F045C167F00001FB
:102CF000686B660509E1100E675D06E10101020ED1
:102D0000446F0001010E686F140EE66EE66A1EEC59
:102D100029F0E552E5523BDF8A988A9A8A9C8A9E7E
:102D20008A948A9601014251560A08E0030A01E09A
:102D30000CD0020E931600016A1707D0030E9316EB
:102D4000949000016A176A9100D08A888A8A640E7A
:102D5000E66EE66ABFEC28F0E552E55205DF17DFC4
:102D6000140EE66EE66A1EEC29F0E552E552FCDE32
:102D70000EDF640EE66EE66ABFEC28F0E552E5521F
:102D8000F3DE05DF640EE66EE66ABFEC28F0E5527E
:102D9000E5528A988A8A640EE66EE66ABFEC28F0ED
:102DA000E552E552E1DEF3DE01014451020A0DE095
:102DB000030A07E0010A01E00CD0280EE66E56DF98
:102DC000E552200EE66E52DFE552280EE66E4EDF2B
:102DD000E552640EE66EE66ABFEC28F0E552E55275
:102DE000080EE66E43DFE552640EE66EE66ABFEC5F
:102DF00028F0E552E552010EE66E38DFE5520A0E84
:102E0000E66EE66A1EEC29F0E552E552060EE66E25
:102E10002DDFE552640EE66EE66ABFEC28F0E5525F
:102E2000E5520C0EE66E22DFE552640EE66EE66AAF
:102E3000BFEC28F0E552E55268D044C1E6FFFADE67
:102E4000E55263D044C1E6FF03DFE552040E010101
:102E5000445D07E2030EE66EE66A1EEC29F0E552D9
:102E6000E55253D0030EDF6E030E01014425DF5CF3
:102E70000CE2DF50EA6A420FE96E010EEA22EF50DF
:102E8000E66ED8DEE552DF2AEFD73FD0030EDF6EC5
:102E9000030E01014425DF5C0CE2DF50EA6A420FB9
:102EA000E96E010EEA22EF50E66ED2DEE552DF2A2D
:102EB000EFD72BD04451010804E200016751010112
:102EC0004527010E4415400DF3504525E76E010ED0
:102ED000E7CFDBFF0001685111E0010E45C1DBFFC8
:102EE0000101455107080AE2380E106E010EDBCFD2
:102EF000E7FF1050E726010EE7CFDBFF010EDB50A6
:102F00008009E66EA5DEE55200D00101100E416F8A
:102F1000020EE15C02E2E16AE552E16EE552E7CFC2
:102F2000D9FF1200D9CFE6FFE1CFD9FF040EE12689
:102F300001014351020A74E0030A08E0010A01E0BA
:102F400099D012EC34F000016B8594D0DE52400E23
:102F5000DD6EFD0EDF6E4451090A47E0010A40E0D4
:102F60000F0A39E0010A31E0030A29E0010A21E0F1
:102F7000070A19E0010A11E0030A09E0010A01E069
:102F800039D0DE523F0EDD6EFD0EDF6E33D0DE52E5
:102F9000180EDD6EFC0EDF6E2DD0DE52180EDD6ECB
:102FA000FD0EDF6E27D0DE52180EDD6EFE0EDF6ED8
:102FB00021D0DE523F0EDD6EFC0EDF6E1BD0DE52E6
:102FC0003F0EDD6EFD0EDF6E15D0DE523F0EDD6E64
:102FD000FE0EDF6E0FD0010EDB68FC0EDF6E0AD036
:102FE000010EDB68FD0EDF6E05D0010EDB68FE0E04
:102FF000DF6E00D0010EE66EE66ADAEC31F0E552E3
:10300000E5527F0EDF14E66EFAEC32F0E552010E67
:10301000DBCFE6FF48EC33F0E55200016B952AD098
:103020004551E66ED950020FE96EDACFEAFFE5525C
:10303000E750EE6EED6AD950020FE96EDACFEAFF83
:10304000EE50ED6EEF6A4451106E116AD950020FC6
:10305000E96EDACFEAFF1050EE121150ED12020EB7
:10306000DBCFE6FF030EDBCFE6FFDAEC31F0E55213
:10307000E55200D00101100E416F040EE15C02E246
:10308000E16AE552E16EE552E7CFD9FF1200D9CFF0
:10309000E6FFE1CFD9FF040EE12601014351020A08
:1030A00074E0030A08E0010A01E099D010EC34F062
:1030B00000016B8394D0DE52400EDD6EFD0EDF6E9C
:1030C0004451090A47E0010A40E00F0A39E0010AC9
:1030D00031E0030A29E0010A21E0070A19E0010AA8
:1030E00011E0030A09E0010A01E039D0DE523F0E87
:1030F000DD6EFD0EDF6E33D0DE52180EDD6EFC0E7F
:10310000DF6E2DD0DE52180EDD6EFD0EDF6E27D085
:10311000DE52180EDD6EFE0EDF6E21D0DE523F0E47
:10312000DD6EFC0EDF6E1BD0DE523F0EDD6EFD0E3F
:10313000DF6E15D0DE523F0EDD6EFE0EDF6E0FD05D
:10314000010EDB68FC0EDF6E0AD0010EDB68FD0E9F
:10315000DF6E05D0010EDB68FE0EDF6E00D0010EC3
:10316000E66EE66AABEC31F0E552E5527F0EDF1415
:10317000E66EFAEC32F0E552010EDBCFE6FFCDEC65
:1031800030F0E55200016B932AD04551E66ED950DC
:10319000020FE96EDACFEAFFE552E750EE6EED6A14
:1031A000D950020FE96EDACFEAFFEE50ED6EEF6A0A
:1031B0004451106E116AD950020FE96EDACFEAFF5E
:1031C0001050EE121150ED12020EDBCFE6FF030E8F
:1031D000DBCFE6FFABEC31F0E552E55200D0010168
:1031E000100E416F040EE15C02E2E16AE552E16E0D
:1031F000E552E7CFD9FF1200D9CFE6FFE1CFD9FFE3
:10320000050EE12601014351050A72E0010A1DE0A5
:10321000070A13E0010A01E0B6D0A69EA69CA68488
:1032200044C1A9FF45C1A8FF550EA76EAA0EA76EFF
:10323000A682A1A8FED7A198A6D0A69EA69C44C10E
:10324000A9FFA680A8CF45F19ED0040EDF6E4451A1
:10325000E66ED950030FE96EDACFEAFFE552E75088
:10326000EE6EED6A4551106E116AD950030FE96E8A
:10327000DACFEAFF1050EE261150ED224451E66EEF
:10328000D950010FE96EDACFEAFFE552E750EE6E52
:10329000ED6A010EDBCF10F0020EDBCF11F0030E52
:1032A000DBCF12F0040EDBCF13F01250105C135082
:1032B00011581DE2A69EA69CA684010EDB50A96EA5
:1032C000DF50EA6A420FE96E010EEA22EF50A86E63
:1032D000550EA76EAA0EA76EA682A1A8FED7A1982A
:1032E000DF2A010EDB2A020E01E3DB2AD2D74BD004
:1032F000040EDF6E4451E66ED950030FE96EDACF4B
:10330000EAFFE552E750EE6EED6A4551106E116A24
:10331000D950030FE96EDACFEAFF1050EE261150B4
:10332000ED224451E66ED950010FE96EDACFEAFF83
:10333000E552E750EE6EED6A010EDBCF10F0020EA3
:10334000DBCF11F0030EDBCF12F0040EDBCF13F056
:103350001250105C1350115815E2A69EA69C010E47
:10336000DB50A96EA680DF50EA6A420FE96E010EBB
:10337000EA22A8CFEFFFDF2A010EDB2A020E01E3CB
:10338000DB2ADAD700D00101100E416F050EE15C97
:1033900002E2E16AE552E16EE552E7CFD9FF1200A1
:1033A000D9CFE6FFE1CFD9FFE652FE0EDB50100D7C
:1033B000F3CFE9FFF4CFEAFF820EE926010EEA22FD
:1033C000EFCFDFFFFE0EDB50100DF3CFE9FFF4CFA0
:1033D000EAFF820EE926010EEA22020EE926000E1D
:1033E000EA22EF50800B02E0000EDF80070EDF14B0
:1033F000070A24E0010A1FE0030A1AE0010A15E0A7
:10340000070A10E0010A0BE0030A06E0010A01E0E6
:1034100018D0350E16D015D0210E13D012D0390E7B
:1034200010D00FD0180E0DD00CD03A0E0AD009D003
:10343000220E07D006D0360E04D003D0140E01D0D1
:1034400000D0E552E552E7CFD9FF1200D9CFE6FF11
:10345000E1CFD9FFFE0EDB50100DF3CFE9FFF4CF23
:10346000EAFF820EE926010EEA22080EE926000E86
:10347000EA220A0EEF6EFE0EDB50100DF3CFE9FFCD
:10348000F4CFEAFF820EE926010EEA22080EE926B1
:10349000000EEA22010EE926000EEA22080EEF6E67
:1034A000FE0EDB50100DF3CFE9FFF4CFEAFF820EE2
:1034B000E926010EEA22080EE926000EEA22020E93
:1034C000E926000EEA22070EEF6EFE0EDB50100D0D
:1034D000F3CFE9FFF4CFEAFF820EE926010EEA22DC
:1034E000080EE926000EEA22030EE926000EEA2263
:1034F000060EEF6EFE0EDB50100DF3CFE9FFF4CF9A
:10350000EAFF820EE926010EEA22080EE926000EE5
:10351000EA22040EE926000EEA22050EEF6EFE0EE8
:10352000DB50100DF3CFE9FFF4CFEAFF820EE9265E
:10353000010EEA22080EE926000EEA22050EE9260F
:10354000000EEA22040EEF6EFE0EDB50100DF3CFDC
:10355000E9FFF4CFEAFF820EE926010EEA22080E07
:10356000E926000EEA22060EE926000EEA22030EE4
:10357000EF6EFE0EDB50100DF3CFE9FFF4CFEAFF44
:10358000820EE926010EEA22080EE926000EEA2242
:10359000070EE926000EEA22020EEF6EE552E7CF93
:1035A000D9FF1200D9CFE6FFE1CFD9FFFD0EDB50E6
:1035B000040A24E0070A19E0010A0CE0030A01E00A
:1035C0002DD0FE0EDB500F0B106EF00E8A14101073
:1035D000816E24D0FE0EDB500F0B100DF3CF10F0D8
:1035E0000F0E8A141010816E19D0FE0EDB500F0BD7
:1035F000106EF00E89141010806E10D0FE0EDB508D
:10360000080DF350400B116EFE0EDB50070B106ED1
:10361000B80E8B1410101110826E00D0E552E7CF57
:10362000D9FF1200D9CFE6FFE1CFD9FF040EE12682
:10363000020EDB6A030EDB6AFE0EDB50100DF3CFC9
:10364000E9FFF4CFEAFF820EE926010EEA22030E1B
:10365000E926000EEA22EF50DE6EDD6AFE0EDB5038
:10366000100DF3CFE9FFF4CFEAFF820EE926010E39
:10367000EA22020EE926000EEA22EF50200B01E1B9
:10368000B5D0FE0EDB50100DF3CFE9FFF4CFEAFF0B
:10369000820EE926010EEA22060EE926000EEA2233
:1036A000EECF10F0EFCF11F0D890115004E6080ED5
:1036B000105C000E11582DE2FE0EDB50100DF3CF02
:1036C000E9FFF4CFEAFF820EE926010EEA22080E96
:1036D000E926000EEA22E9CF10F0EACF11F0FE0E43
:1036E000DB50100DF3CFE9FFF4CFEAFF820EE9269D
:1036F000010EEA22060EE926000EEA221050EE2400
:10370000E76E1150EE20EA6EE7CFE9FF020EEFCF31
:10371000DBFFFE0EDB50100DF3CFE9FFF4CFEAFF25
:10372000820EE926010EEA22040EE926000EEA22A4
:10373000EECF10F0EFCF11F0D890115004E6080E44
:10374000105C000E11582DE2FE0EDB50100DF3CF71
:10375000E9FFF4CFEAFF820EE926010EEA22080E05
:10376000E926000EEA22E9CF10F0EACF11F0FE0EB2
:10377000DB50100DF3CFE9FFF4CFEAFF820EE9260C
:10378000010EEA22040EE926000EEA221050EE2471
:10379000E76E1150EE20EA6EE7CFE9FF030EEFCFA0
:1037A000DBFFDECF10F0DDCF11F0020EDB500001A9
:1037B00011AE02D0D89003D0105C000E115804E274
:1037C000020EDB50DE6EDD6ADECF10F0DDCF11F0D1
:1037D000030EDB5011AE02D0D89003D0105C000E67
:1037E000115804E2030EDB50DE6EDD6AFE0EDB5084
:1037F000100DF3CFE9FFF4CFEAFF820EE926010EA8
:10380000EA22060EE926000EEA22EE2AEF22FE0E3A
:10381000DB50100DF3CFE9FFF4CFEAFF820EE9266B
:10382000010EEA22020EE926000EEA22EF50400BBA
:1038300016E0DECF10F0DDCF11F0640E1102F3CFF1
:1038400011F01002F3CF10F0F450112610C0E6FF73
:1038500011C0E6FFBFEC28F0E552E55208D0DECFFC
:10386000E6FFDDCFE6FF1EEC29F0E552E552040E3F
:10387000E15C02E2E16AE552E16EE552E7CFD9FF91
:103880001200D9CFE6FFE1CFD9FF01014351040A6D
:1038900001E1ABD2070A01E16CD2010A62E0030A3E
:1038A00025E0010A02E09FEF20F0FE0EDB50040A43
:1038B00016E0070A0FE0010A08E0030A01E014D04D
:1038C0000F0E931200016A130FD0F00E9312000135
:1038D0006A130AD00F0E92120001691305D0470E29
:1038E000941200016B1300D09FEF20F0FE0EDBCF8F
:1038F000E6FFFE0EDBCFE9FFEA6AE9BEEA68040EE6
:10390000D890E936EA36E806FBE1820EE926010E98
:10391000EA22EF50E66E44DDE552E66E43DEE55204
:10392000E552FE0EDB50040A16E0070A0FE0010A1A
:1039300008E0030A01E014D0F00E931600016A17A4
:103940000FD00F0E931600016A170AD0F00E9216D0
:103950000001691705D0B80E941600016B1700D04E
:10396000EED3475102E1010E476FFE0EDBCFE9FFB8
:10397000EA6AE9BEEA68040ED890E936EA36E80653
:10398000FBE1820EE926010EEA22EE52010EEF6EF5
:10399000FE0EDBCFE9FFEA6AE9BEEA68040ED890C2
:1039A000E936EA36E806FBE1820EE926010EEA2254
:1039B000020EE926000EEA2246C1EFFFFE0EDBCF23
:1039C000E9FFEA6AE9BEEA68040ED890E936EA3609
:1039D000E806FBE1820EE926010EEA22030EE92643
:1039E000000EEA2247C1EFFF01014551E66EFE0ECF
:1039F000DBCFE9FFEA6AE9BEEA68040ED890E9364F
:103A0000EA36E806FBE1820EE926010EEA22040E00
:103A1000E926000EEA22E552E750EE6EED6AFE0E50
:103A2000DBCFE9FFEA6AE9BEEA68040ED890E9361E
:103A3000EA36E806FBE1820EE926010EEA22040ED0
:103A4000E926000EEA22EE50ED6EEF6A01014451C4
:103A5000106E116AFE0EDBCFE9FFEA6AE9BEEA6882
:103A6000040ED890E936EA36E806FBE1820EE92634
:103A7000010EEA22040EE926000EEA221050EE267C
:103A80001150ED22FE0EDBCFE9FFEA6AE9BEEA68DB
:103A9000040ED890E936EA36E806FBE1820EE92604
:103AA000010EEA22060EE926000EEA22EE6AED6A0F
:103AB000FE0EDBCFE9FFEA6AE9BEEA68040ED890A1
:103AC000E936EA36E806FBE1820EE926010EEA2233
:103AD000020EE926000EEA22EF50020B020811E165
:103AE000FE0EDBCFE9FFEA6AE9BEEA68040ED89071
:103AF000E936EA36E806FBE1820EE926010EEA2203
:103B0000EF90FE0EDBCFE9FFEA6AE9BEEA68040E39
:103B1000D890E936EA36E806FBE1820EE926010E86
:103B2000EA22020EE926000EEA22EF50040B0408F6
:103B300001E01ED1FE0EDBCFE9FFEA6AE9BEEA68CA
:103B4000040ED890E936EA36E806FBE1820EE92653
:103B5000010EEA22040EE926000EEA22EECF10F052
:103B6000EFCF11F0113404E210500008000E115490
:103B700001E3B1D0FE0EDBCFE9FFEA6AE9BEEA68F5
:103B8000040ED890E936EA36E806FBE1820EE92613
:103B9000010EEA22020EE926000EEA22EF50030B84
:103BA000030A4EE0010A29E0030A15E0010A01E0D8
:103BB0006AD0FE0EDBCFE9FFEA6AE9BEEA68040ECE
:103BC000D890E936EA36E806FBE1820EE926010ED6
:103BD000EA22EF2A58D0FE0EDBCFE9FFEA6AE9BEFF
:103BE000EA68040ED890E936EA36E806FBE1820E70
:103BF000E926010EEA22EF0646D0FE0EDBCFE9FFF2
:103C0000EA6AE9BEEA68040ED890E936EA36E806C0
:103C1000FBE1820EE926010EEA22EF2AFE0EDBCF3F
:103C2000E9FFEA6AE9BEEA68040ED890E936EA36A6
:103C3000E806FBE1820EE926010EEA22EF2A23D0F4
:103C4000FE0EDBCFE9FFEA6AE9BEEA68040ED8900F
:103C5000E936EA36E806FBE1820EE926010EEA22A1
:103C6000EF06FE0EDBCFE9FFEA6AE9BEEA68040E62
:103C7000D890E936EA36E806FBE1820EE926010E25
:103C8000EA22EF0600D0FE0EDBCFE6FFDBCFE6FF39
:103C9000D0EC19F0E552E66E85DCE552E552FE0EF9
:103CA000DBCFE6FFBFDCE552FE0EDBCFE9FFEA6AC1
:103CB000E9BEEA68040ED890E936EA36E806FBE188
:103CC000820EE926010EEA22040EE926000EEA22FF
:103CD000EE06EF5A2FD7FE0EDBCFE9FFEA6AE9BE08
:103CE000EA68040ED890E936EA36E806FBE1820E6F
:103CF000E926010EEA22EE52EF6AFE0EDBCFE9FF63
:103D0000EA6AE9BEEA68040ED890E936EA36E806BF
:103D1000FBE1820EE926010EEA22020EE926000EE0
:103D2000EA22EF50080B080823E1FE0EDBCFE9FF83
:103D3000EA6AE9BEEA68040ED890E936EA36E8068F
:103D4000FBE1820EE926010EEA22030EE926000EAF
:103D5000EA22EF500A0FE66EE66A1EEC29F0E55201
:103D6000E552FE0EDBCFE6FFE66A1CDCE552E552CB
:103D7000E6D1FE0EDBCFE9FFEA6AE9BEEA68040E8F
:103D8000D890E936EA36E806FBE1820EE926010E14
:103D9000EA22040EE926000EEA22EECF10F0EFCF61
:103DA00011F010500101446FFE0EDBCFE9FFEA6A0B
:103DB000E9BEEA68040ED890E936EA36E806FBE187
:103DC000820EE926010EEA22040EE926000EEA22FE
:103DD000EECF10F0EFCF11F01016FF0E111611C03C
:103DE00010F0116A10C045F1AAD14451030A01E153
:103DF000D8D0010A0AE0020A01E0A0D1FE0EDBCF12
:103E0000E6FF26EC1AF0E55299D1FE0EDBCFE9FF72
:103E1000EA6AE9BEEA68040ED890E936EA36E806AE
:103E2000FBE1820EE926010EEA22080EE926000EC9
:103E3000EA2245C1EFFFFE0EDBCFE9FFEA6AE9BEE9
:103E4000EA68040ED890E936EA36E806FBE1820E0D
:103E5000E926010EEA22080EE926000EEA22010EEA
:103E6000E926000EEA2246C1EFFFFE0EDBCFE9FF96
:103E7000EA6AE9BEEA68040ED890E936EA36E8064E
:103E8000FBE1820EE926010EEA22080EE926000E69
:103E9000EA22020EE926000EEA2247C1EFFFFE0EDB
:103EA000DBCFE9FFEA6AE9BEEA68040ED890E9369A
:103EB000EA36E806FBE1820EE926010EEA22080E48
:103EC000E926000EEA22030EE926000EEA2248C186
:103ED000EFFFFE0EDBCFE9FFEA6AE9BEEA68040EF7
:103EE000D890E936EA36E806FBE1820EE926010EB3
:103EF000EA22080EE926000EEA22040EE926000E48
:103F0000EA2249C1EFFFFE0EDBCFE9FFEA6AE9BE14
:103F1000EA68040ED890E936EA36E806FBE1820E3C
:103F2000E926010EEA22080EE926000EEA22050E15
:103F3000E926000EEA224AC1EFFFFE0EDBCFE9FFC1
:103F4000EA6AE9BEEA68040ED890E936EA36E8067D
:103F5000FBE1820EE926010EEA22080EE926000E98
:103F6000EA22060EE926000EEA224BC1EFFFFE0E02
:103F7000DBCFE9FFEA6AE9BEEA68040ED890E936C9
:103F8000EA36E806FBE1820EE926010EEA22080E77
:103F9000E926000EEA22070EE926000EEA224CC1AD
:103FA000EFFFFE0EDBCFE9FFEA6AE9BEEA68040E26
:103FB000D890E936EA36E806FBE1820EE926010EE2
:103FC000EA22080EE926000EEA22EFCF45F1FE0EA6
:103FD000DBCFE9FFEA6AE9BEEA68040ED890E93669
:103FE000EA36E806FBE1820EE926010EEA22080E17
:103FF000E926000EEA22010EE926000EEA22EFCFA2
:1040000046F1FE0EDBCFE9FFEA6AE9BEEA68040E7C
:10401000D890E936EA36E806FBE1820EE926010E81
:10402000EA22080EE926000EEA22020EE926000E18
:10403000EA22EFCF47F1FE0EDBCFE9FFEA6AE9BEE5
:10404000EA68040ED890E936EA36E806FBE1820E0B
:10405000E926010EEA22080EE926000EEA22030EE6
:10406000E926000EEA22EFCF48F1FE0EDBCFE9FF92
:10407000EA6AE9BEEA68040ED890E936EA36E8064C
:10408000FBE1820EE926010EEA22080EE926000E67
:10409000EA22040EE926000EEA22EFCF49F1FE0ED5
:1040A000DBCFE9FFEA6AE9BEEA68040ED890E93698
:1040B000EA36E806FBE1820EE926010EEA22080E46
:1040C000E926000EEA22050EE926000EEA22EFCFCD
:1040D0004AF1FE0EDBCFE9FFEA6AE9BEEA68040EA8
:1040E000D890E936EA36E806FBE1820EE926010EB1
:1040F000EA22080EE926000EEA22060EE926000E44
:10410000EA22EFCF4BF1FE0EDBCFE9FFEA6AE9BE10
:10411000EA68040ED890E936EA36E806FBE1820E3A
:10412000E926010EEA22080EE926000EEA22070E11
:10413000E926000EEA22EFCF4CF100D000D00101B9
:10414000100E416FE552E7CFD9FF1200D9CFE6FF3D
:10415000E1CFD9FFFE0EDBCFE9FFEA6AE9BEEA68EC
:10416000040ED890E936EA36E806FBE1820EE9262D
:10417000010EEA22040EE926000EEA22EECF10F02C
:10418000EFCF11F0113404E210500008000E11546A
:1041900001E3B2D0FE0EDBCFE9FFEA6AE9BEEA68CE
:1041A000040ED890E936EA36E806FBE1820EE926ED
:1041B000010EEA22020EE926000EEA22EF50030B5E
:1041C000030A4EE0010A29E0030A15E0010A01E0B2
:1041D0006AD0FE0EDBCFE9FFEA6AE9BEEA68040EA8
:1041E000D890E936EA36E806FBE1820EE926010EB0
:1041F000EA22EF2A58D0FE0EDBCFE9FFEA6AE9BED9
:10420000EA68040ED890E936EA36E806FBE1820E49
:10421000E926010EEA22EF0646D0FE0EDBCFE9FFCB
:10422000EA6AE9BEEA68040ED890E936EA36E8069A
:10423000FBE1820EE926010EEA22EF2AFE0EDBCF19
:10424000E9FFEA6AE9BEEA68040ED890E936EA3680
:10425000E806FBE1820EE926010EEA22EF2A23D0CE
:10426000FE0EDBCFE9FFEA6AE9BEEA68040ED890E9
:10427000E936EA36E806FBE1820EE926010EEA227B
:10428000EF06FE0EDBCFE9FFEA6AE9BEEA68040E3C
:10429000D890E936EA36E806FBE1820EE926010EFF
:1042A000EA22EF0600D0FE0EDBCFE6FFDBCFE6FF13
:1042B000D0EC19F0E552E66ED2EC1AF0E552E55278
:1042C000FE0EDBCFE6FF12EC1BF0E552FE0EDBCF5D
:1042D000E9FFEA6AE9BEEA68040ED890E936EA36F0
:1042E000E806FBE1820EE926010EEA22040EE92629
:1042F000000EEA22EE06EF5AFE0EDBCFE9FFEA6A75
:10430000E9BEEA68040ED890E936EA36E806FBE131
:10431000820EE926010EEA22040EE926000EEA22A8
:10432000EECF10F0EFCF11F0113404E2105000087E
:10433000000E11544EE3FE0EDBCFE9FFEA6AE9BE40
:10434000EA68040ED890E936EA36E806FBE1820E08
:10435000E926010EEA22EE52EF6AFE0EDBCFE9FFFC
:10436000EA6AE9BEEA68040ED890E936EA36E80659
:10437000FBE1820EE926010EEA22020EE926000E7A
:10438000EA22EF50080B080824E1FE0EDBCFE9FF1C
:10439000EA6AE9BEEA68040ED890E936EA36E80629
:1043A000FBE1820EE926010EEA22030EE926000E49
:1043B000EA22EF500A0FE66EE66A1EEC29F0E5529B
:1043C000E552FE0EDBCFE6FFE66AD2EC1AF0E552CC
:1043D000E552E552E7CFD9FF1200D9CFE6FFE1CF92
:1043E000D9FF020EE12601014351030A01E116D271
:1043F000010A45E0030A23E0010A01E050D2FE0E63
:10440000DB50040A16E0070A0FE0010A08E0030A7D
:1044100001E014D0030E931200016A130FD00C0EAA
:10442000931200016A130AD0300E931200016A132E
:1044300005D0C00E931200016A1300D030D2FE0ED8
:10444000DB50040A16E0070A0FE0010A08E0030A3D
:1044500001E014D0FC0E931600016A170FD0F30E82
:10446000931600016A170AD0CF0E931600016A173F
:1044700005D03F0E931600016A1700D010D24751A5
:1044800002E1010E476FFE0EDBCFE9FFEA6AE9BEEB
:10449000EA68050EEA02F3CFEAFFE902F3CFE9FF8B
:1044A000F450EA26D20EE926010EEA22010EEF6E42
:1044B000FE0EDBCFE9FFEA6AE9BEEA68050EEA0212
:1044C000F3CFEAFFE902F3CFE9FFF450EA26D20E78
:1044D000E926010EEA22EE5246C1EFFFFE0EDBCFC7
:1044E000E9FFEA6AE9BEEA68050EEA02F3CFEAFFED
:1044F000E902F3CFE9FFF450EA26D20EE926010ED5
:10450000EA22020EE926000EEA2247C1EFFF4551DA
:10451000E66EFE0EDBCFE9FFEA6AE9BEEA68050E49
:10452000EA02F3CFEAFFE902F3CFE9FFF450EA260B
:10453000D20EE926010EEA22030EE926000EEA2237
:10454000E552E750EE6EED6AFE0EDBCFE9FFEA6A58
:10455000E9BEEA68050EEA02F3CFEAFFE902F3CF0B
:10456000E9FFF450EA26D20EE926010EEA22030EF4
:10457000E926000EEA22EE50ED6EEF6A4451106E0D
:10458000116AFE0EDBCFE9FFEA6AE9BEEA68050EB2
:10459000EA02F3CFEAFFE902F3CFE9FFF450EA269B
:1045A000D20EE926010EEA22030EE926000EEA22C7
:1045B0001050EE261150ED22FE0EDB50040A58E09A
:1045C000070A3BE0010A1EE0030A01E06CD0FE0E80
:1045D000DBCFE9FFEA6AE9BEEA68050EEA02F3CF3B
:1045E000EAFFE902F3CFE9FFF450EA26D20EE9260A
:1045F000010EEA22EE52EF50010B02E08A8201D056
:104600008A9251D0FE0EDBCFE9FFEA6AE9BEEA6882
:10461000050EEA02F3CFEAFFE902F3CFE9FFF45017
:10462000EA26D20EE926010EEA22EE52EF50010BE5
:1046300002E08A8601D08A9636D0FE0EDBCFE9FFF3
:10464000EA6AE9BEEA68050EEA02F3CFEAFFE90288
:10465000F3CFE9FFF450EA26D20EE926010EEA2252
:10466000EE52EF50010B02E08A8A01D08A9A1BD0E9
:10467000FE0EDBCFE9FFEA6AE9BEEA68050EEA0250
:10468000F3CFEAFFE902F3CFE9FFF450EA26D20EB6
:10469000E926010EEA22EE52EF50010B02E08A8E6B
:1046A00001D08A9E00D0FE0EDBCFE9FFEA6AE9BEA8
:1046B000EA68050EEA02F3CFEAFFE902F3CFE9FF69
:1046C000F450EA26D20EE926010EEA22EE52EF500D
:1046D000040B040801E0A1D0FE0EDBCFE9FFEA6A7B
:1046E000E9BEEA68050EEA02F3CFEAFFE902F3CF7A
:1046F000E9FFF450EA26D20EE926010EEA22030E63
:10470000E926000EEA22EECF10F0EFCF11F01134BF
:1047100004E210500008000E11546BE2FE0EDB5054
:10472000040A25E0070A19E0010A0DE0030A01E086
:1047300028D08A90010EE66EE66ABFEC28F0E552BA
:10474000E5528A801ED08A94010EE66EE66ABFECBE
:1047500028F0E552E5528A8414D08A98010EE66E5C
:10476000E66ABFEC28F0E552E5528A880AD08A9CB6
:10477000010EE66EE66ABFEC28F0E552E5528A8C3F
:1047800000D0FE0EDBCFE9FFEA6AE9BEEA68050E5B
:10479000EA02F3CFEAFFE902F3CFE9FFF450EA2699
:1047A000D20EE926010EEA22020EE926000EEA22C6
:1047B000EF50E66EE66A1EEC29F0E552E552FE0E79
:1047C000DBCFE9FFEA6AE9BEEA68050EEA02F3CF49
:1047D000EAFFE902F3CFE9FFF450EA26D20EE92618
:1047E000010EEA22030EE926000EEA22EE06EF5A37
:1047F00073D7FE0EDBCFE9FFEA6AE9BEEA68050E71
:10480000EA02F3CFEAFFE902F3CFE9FFF450EA2628
:10481000D20EE926010EEA22EF6A41D0FE0EDBCF6E
:10482000E9FFEA6AE9BEEA68050EEA02F3CFEAFFA9
:10483000E902F3CFE9FFF450EA26D20EE926010E91
:10484000EA22030EE926000EEA22EECF10F0EFCFA7
:1048500011F01050446FFE0EDBCFE9FFEA6AE9BEAB
:10486000EA68050EEA02F3CFEAFFE902F3CFE9FFB7
:10487000F450EA26D20EE926010EEA22030EE926BA
:10488000000EEA22EECF10F0EFCF11F01016FF0E5F
:10489000111611C010F0116A10C045F100D00101CD
:1048A000100E416F020EE15C02E2E16AE552E16E38
:1048B000E552E7CFD9FF1200D9CFE6FFE1CFD9FF0C
:1048C000FE0EDBCFE9FFEA6AE9BEEA68050EEA02FE
:1048D000F3CFEAFFE902F3CFE9FFF450EA26D20E64
:1048E000E926010EEA22030EE926000EEA22EECFA7
:1048F00010F0EFCF11F0113404E210500008000E58
:1049000011546AE2FE0EDB50040A25E0070A19E0A2
:10491000010A0DE0030A01E028D08A90010EE66E3C
:10492000E66ABFEC28F0E552E5528A801ED08A94F0
:10493000010EE66EE66ABFEC28F0E552E5528A8485
:1049400014D08A98010EE66EE66ABFEC28F0E552B4
:10495000E5528A880AD08A9C010EE66EE66ABFECB0
:1049600028F0E552E5528A8C00D0FE0EDBCFE9FF3D
:10497000EA6AE9BEEA68050EEA02F3CFEAFFE90255
:10498000F3CFE9FFF450EA26D20EE926010EEA221F
:10499000020EE926000EEA22EF50E66EE66A1EECF1
:1049A00029F0E552E552FE0EDBCFE9FFEA6AE9BEE7
:1049B000EA68050EEA02F3CFEAFFE902F3CFE9FF66
:1049C000F450EA26D20EE926010EEA22030EE92669
:1049D000000EEA22EE06EF5AFE0EDBCFE9FFEA6A8E
:1049E000E9BEEA68050EEA02F3CFEAFFE902F3CF77
:1049F000E9FFF450EA26D20EE926010EEA22030E60
:104A0000E926000EEA22EECF10F0EFCF11F01134BC
:104A100004E210500008000E115414E3FE0EDBCF28
:104A2000E9FFEA6AE9BEEA68050EEA02F3CFEAFFA7
:104A3000E902F3CFE9FFF450EA26D20EE926010E8F
:104A4000EA22EF6AE552E7CFD9FF12000101435194
:104A5000030A2FE0010A1CE0030A10E0010A01E04A
:104A60002FD00001766B756B320E776F786F796F90
:104A70007A6F7B6F7C6F7D6F7E6F22D044C176F042
:104A80000001765102E1000E01D0010E756F18D0C1
:104A900044C177F045C178F046C179F047C17AF05A
:104AA00048C17BF049C17CF04AC17DF04BC17EF02A
:104AB00007D04451050DF3CF89F0F4CF8AF000D030
:104AC0000101100E416F120001014351030A2FE052
:104AD000010A1CE0030A10E0010A01E02FD00001E6
:104AE000806B7F6B320E816F826F836F846F856FF7
:104AF000866F876F886F22D044C180F0000180519B
:104B000002E1000E01D0010E7F6F18D044C181F088
:104B100045C182F046C183F047C184F048C185F0A9
:104B200049C186F04AC187F04BC188F007D0445193
:104B3000050DF3CF89F0F4CF8AF000D00101100EFB
:104B4000416F1200D9CFE6FFE1CFD9FF020EE12677
:104B5000D00EDE6E070EDD6E000176A126D093909A
:104B60008A8077510A0D8951F324106E8A51F420FE
:104B7000116E10C0E6FF11C0E6FF01DBE552E55201
:104B800000017751106E116AD9CFE9FFDACFEAFF41
:104B90001050EE5E1150ED5AD9CFE9FFDACFEAFF9F
:104BA000640EEE5E000EED5A8A9076A326D09392A4
:104BB0008A8278510A0D8951F324106E8A51F420AB
:104BC000116E10C0E6FF11C0E6FFD9DAE552E552DA
:104BD00000017851106E116AD9CFE9FFDACFEAFFF0
:104BE0001050EE5E1150ED5AD9CFE9FFDACFEAFF4F
:104BF000640EEE5E000EED5A8A9276A526D093944E
:104C00008A8479510A0D8951F324106E8A51F42057
:104C1000116E10C0E6FF11C0E6FFB1DAE552E552B1
:104C200000017951106E116AD9CFE9FFDACFEAFF9E
:104C30001050EE5E1150ED5AD9CFE9FFDACFEAFFFE
:104C4000640EEE5E000EED5A8A9476A726D09396F7
:104C50008A867A510A0D8951F324106E8A51F42004
:104C6000116E10C0E6FF11C0E6FF89DAE552E55289
:104C700000017A51106E116AD9CFE9FFDACFEAFF4D
:104C80001050EE5E1150ED5AD9CFE9FFDACFEAFFAE
:104C9000640EEE5E000EED5A8A9676A926D09398A1
:104CA0008A887B510A0D8951F324106E8A51F420B1
:104CB000116E10C0E6FF11C0E6FF61DAE552E55261
:104CC00000017B51106E116AD9CFE9FFDACFEAFFFC
:104CD0001050EE5E1150ED5AD9CFE9FFDACFEAFF5E
:104CE000640EEE5E000EED5A8A9876AB26D0939A4B
:104CF0008A8A7C510A0D8951F324106E8A51F4205E
:104D0000116E10C0E6FF11C0E6FF39DAE552E55238
:104D100000017C51106E116AD9CFE9FFDACFEAFFAA
:104D20001050EE5E1150ED5AD9CFE9FFDACFEAFF0D
:104D3000640EEE5E000EED5A8A9A76AD26D0939CF4
:104D40008A8C7D510A0D8951F324106E8A51F4200A
:104D5000116E10C0E6FF11C0E6FF11DAE552E55210
:104D600000017D51106E116AD9CFE9FFDACFEAFF59
:104D70001050EE5E1150ED5AD9CFE9FFDACFEAFFBD
:104D8000640EEE5E000EED5A8A9C76AF26D0939E9E
:104D90008A8E7E510A0D8951F324106E8A51F420B7
:104DA000116E10C0E6FF11C0E6FFE9D9E552E552E9
:104DB00000017E51106E116AD9CFE9FFDACFEAFF08
:104DC0001050EE5E1150ED5AD9CFE9FFDACFEAFF6D
:104DD000640EEE5E000EED5A8A9ED9CFE9FFDACF5F
:104DE000EAFF000ED880EE54000EED5414E2DECF40
:104DF00010F0DDCF11F00A0E1102F3CF11F0100206
:104E0000F3CF10F0F450112610C0E6FF11C0E6FFFA
:104E1000B6D9E552E552020EE15C02E2E16AE552E2
:104E2000E16EE552E7CFD9FF1200D9CFE6FFE1CF1F
:104E3000D9FF020EE126E20EDE6E040EDD6E0001E9
:104E400080A126D094908B8081510A0D8951F32442
:104E5000106E8A51F420116E10C0E6FF11C0E6FFFB
:104E60008ED9E552E55200018151106E116AD9CFF9
:104E7000E9FFDACFEAFF1050EE5E1150ED5AD9CFBC
:104E8000E9FFDACFEAFF640EEE5E000EED5A8B907A
:104E900080A326D094928B8282510A0D8951F324EB
:104EA000106E8A51F420116E10C0E6FF11C0E6FFAB
:104EB00066D9E552E55200018251106E116AD9CFD0
:104EC000E9FFDACFEAFF1050EE5E1150ED5AD9CF6C
:104ED000E9FFDACFEAFF640EEE5E000EED5A8B9228
:104EE00080A526D094948B8483510A0D8951F32494
:104EF000106E8A51F420116E10C0E6FF11C0E6FF5B
:104F00003ED9E552E55200018351106E116AD9CFA6
:104F1000E9FFDACFEAFF1050EE5E1150ED5AD9CF1B
:104F2000E9FFDACFEAFF640EEE5E000EED5A8B94D5
:104F300080AD26D0949C8B8C87510A0D8951F32427
:104F4000106E8A51F420116E10C0E6FF11C0E6FF0A
:104F500016D9E552E55200018751106E116AD9CF7A
:104F6000E9FFDACFEAFF1050EE5E1150ED5AD9CFCB
:104F7000E9FFDACFEAFF640EEE5E000EED5A8B9C7D
:104F800080AF26D0949E8B8E88510A0D8951F324D0
:104F9000106E8A51F420116E10C0E6FF11C0E6FFBA
:104FA000EED8E552E55200018851106E116AD9CF52
:104FB000E9FFDACFEAFF1050EE5E1150ED5AD9CF7B
:104FC000E9FFDACFEAFF640EEE5E000EED5A8B9E2B
:104FD000D9CFE9FFDACFEAFF000ED880EE54000EF9
:104FE000ED5414E2DECF10F0DDCF11F00A0E110205
:104FF000F3CF11F01002F3CF10F0F450112610C0CF
:10500000E6FF11C0E6FFBBD8E552E552020EE15CB7
:1050100002E2E16AE552E16EE552E7CFD9FF120004
:10502000D9CFE6FFE1CFD9FF020EE12601014351BE
:10503000040A38E0070A28E0010A1AE0030A08E037
:10504000010A01E037D00DEC34F00001698932D05B
:105050003F0EE66EDEEC32F0E552000EE66EE66ADA
:10506000C2EC32F0E552E55292880001699922D0F3
:1050700068EC32F0F3CFDEFFF4CFDDFFDFCF44F199
:10508000010EDBCF45F116D044C1DFFF010E45C153
:10509000DBFFDECFE6FFDDCFE6FFC2EC32F0E5520C
:1050A000E55208D0000EE66EE66AC2EC32F0E55238
:1050B000E55200D00101100E416F020EE15C02E2E8
:1050C000E16AE552E16EE552E7CFD9FF1200D9CF90
:1050D000E6FFE1CFD9FF020EE12601014351040AA8
:1050E00039E0070A29E0010A1BE0030A08E0010A87
:1050F00001E038D00AEC34F000016B8133D0070EA8
:10510000E66E09EC32F0E552CD96000EE66EE66AE8
:10511000A6EC32F0E552E552948000016B9122D06A
:1051200049EC32F0F3CFDEFFF4CFDDFFDFCF44F107
:10513000010EDBCF45F116D044C1DFFF010E45C1A2
:10514000DBFFDECFE6FFDDCFE6FFA6EC32F0E55277
:10515000E55208D0000EE66EE66AA6EC32F0E552A3
:10516000E55200D00101100E416F020EE15C02E237
:10517000E16AE552E16EE552E7CFD9FF1200D9CFDF
:10518000E6FFE1CFD9FFE652FF0EE76EFD0EDBCF63
:1051900010F0FE0EDBCF11F0E7501016116A105020
:1051A000DF6EDF50000805E2DFCFE6FFF8EC33F0FA
:1051B000E552FD0EDBCF10F0FE0EDBCF11F011C07B
:1051C00010F0116A1050DF6EDF50000832E2DFCFBE
:1051D000E6FFBDEC33F0E552DFCFE6FFBDEC33F088
:1051E000E552DFCFE6FFBDEC33F0E552DFCFE6FF5F
:1051F000F8EC33F0E552DFCFE6FFF8EC33F0E552A0
:10520000DFCFE6FFF8EC33F0E552DFCFE6FFF8EC56
:1052100033F0E552DFCFE6FFF8EC33F0E552DFCFB5
:10522000E6FFF8EC33F0E552DFCFE6FFF8EC33F0C1
:10523000E552E552E552E7CFD9FF1200D9CFE6FF9C
:10524000E1CFD9FFD950FD0FE96EFF0EDA20EA6EEB
:10525000000ED880EE54000EED5412E2FD0EDBCFAE
:10526000E6FF78EC33F0E552FD0EDBCFE6FFBDEC58
:1052700033F0E552FD0EDBCFE6FFBDEC33F0E55237
:10528000E552E7CFD9FF1200D9CFE6FFE1CFD9FF32
:10529000030EE1260101440E426F3F0E416F040EE2
:1052A000DF6E4351E66ED950010FE96EDACFEAFFA7
:1052B000E552E750EE6EED6A010EDBCF10F0020E04
:1052C000DBCF11F043514525126E136A1250105C6A
:1052D0001350115814E2A69E010EDB50A96EA68051
:1052E000DF50EA6A420FE96E010EEA22A8CFEFFF13
:1052F000DF2A010EDB2A020E01E3DB2ADDD7030ED3
:10530000E15C02E2E16AE552E16EE552E7CFD9FFE6
:105310001200D9CFE6FFE1CFD9FF030EE12601014C
:10532000010E416F450E426F040EDF6E4351E66E73
:10533000D950010FE96EDACFEAFFE552E750EE6E81
:10534000ED6A010EDBCF10F0020EDBCF11F0010190
:1053500043514525126E136A1250105C13501158B8
:105360001CE2A69EA684010EDB50A96EDF50EA6AFD
:10537000420FE96E010EEA22EF50A86E550EA76E9D
:10538000AA0EA76EA682A1A8FED7A198DF2A010EB9
:10539000DB2A020E01E3DB2AD4D7030EE15C02E232
:1053A000E16AE552E16EE552E7CFD9FF1200C28211
:1053B000C2B2FED700D012009494780ECB6E0C0EC1
:0C53C000BD6EBE6E040ECA6E00D012005E
:0453CC006C500CE134
:1053D0006896040100513C0BE842E8420D0802E1E6
:1053E0000ED801D046D808D0040E6C5C03E1689654
:1053F00050D802D0000E02D0010E00D01200D9CF3A
:10540000E6FFE1CFD9FFE652040104BF046B0001BF
:10541000B56BAD6BAE6BB36BB46B76EC2DF0DF6A36
:10542000DF50106E116A010E105C000E11581BE265
:105430000001AE5101E017D0F76ADF34FE0BF736FA
:10544000F66E6F0EF626600EF7220900F5CF10F00B
:105450000800F5CF11F004D011C0FAFF1050F96E1A
:10546000FBDFDF2ADDD7EED8E552E552E7CFD9FFE3
:105470001200020E0001AD5D0AE1A7D8040100BDD3
:1054800003D0C80E006F02D0880E006F01D020D963
:105490001200040E0001B65D0AE122C46EFF6E50D8
:1054A000000803E2050EB66F02D0030EB66F0001CE
:1054B000AD0512E113D8020E0001B55D04E104014F
:1054C000840E046F08D0040104BD03D0C80E046F1D
:1054D00002D0880E046F01D0FBD81200D9CFE6FFAE
:1054E000E1CFD9FF020EE1260001080EB35D000EE8
:1054F000B4590EE2B3C0DEFFB4C0DDFFB55103E125
:10550000010EB56F04D0B50502E1020EB56F03D0F0
:10551000080EDE6EDD6A040104930491010EDB5077
:105520000413DFCF05F4000EDB500001B35F010E62
:10553000DB50B45B280EB16F040EB26F0001B7A34D
:105540001ED0D9CFE9FFDACFEAFFEE50ED1016E01A
:10555000AFC0F6FFB0C0F7FF0800F550B1C0E9FFDB
:10556000B2C0EAFFEF6E0001B12B000EB223AF2BE9
:10557000B023DF06010E01E2DB06E3D71CD0D9CF52
:10558000E9FFDACFEAFFEE50ED1015E0AFC0E9FF1A
:10559000B0C0EAFFEF50B1C0E9FFB2C0EAFFEF6E62
:1055A0000001B12B000EB223AF2BB023DF06010E9A
:1055B00001E2DB06E4D7020EE15C02E2E16AE552B9
:1055C000E16EE552E7CFD9FF1200D9CFE6FFE1CF78
:1055D000D9FF020EE126030E04010015E76E010E4D
:1055E000E7CFDBFF01C4DFFFDE500001B327DD5052
:1055F000B423280EAF6F040EB06FD9CFE9FFDACF16
:10560000EAFFEE50ED1014E0AFC0E9FFB0C0EAFFD2
:10561000EF50B1C0E9FFB2C0EAFFEF6EB12B000E50
:10562000B223AF2BB023DF06010E01E2DB06E5D784
:10563000020EE15C02E2E16AE552E16EE552E7CF7B
:10564000D9FF12006D980001AE510CE10401080E63
:10565000016F200E026F040E036F840E006F0401B1
:10566000046F35D0040120AF22D00001B3510401F2
:10567000265D0001B4510401275904E226C4B3F0A9
:1056800027C4B4F02BDF0001010EAD6F0401080E3A
:10569000016F200E026F040E036F800E006F040175
:1056A000280E066F040E076FC80E046F10D000019D
:1056B000020EAD6F0401056BC80E046F0401080EE5
:1056C000016F280E026F040E036FC80E006F1200E8
:1056D000D9CFE6FFE1CFD9FFE652020E0001AD5D62
:1056E00036E16D50100B33E004010151106E116A68
:1056F000080E101801E111502AE100513C0BE8425C
:10570000E8420D0824E10051800B21E1200E026FD8
:10571000040E036FDF6ADF50106E116A080E105C12
:10572000000E115813E2DF50EA6A280FE96E040EEA
:10573000EA22EF50E66EDF50EA6A200FE96E040EAF
:10574000EA22E552E750EF6EDF2AE5D70DD00001DF
:10575000AD6B0401080E016F200E026F040E036F83
:105760008C0E006F0401046BE552E552E7CFD9FFC0
:02577000120025
:0E577200040120511F0B010801E05BD0205103
:10578000600BE842E842E842E842E842010801E0F2
:1057900051D0245103E0240501E04CD02151230ACB
:1057A00048E0010A40E0030A30E0010A25E0240A4B
:1057B00022E0070A1FE0010A1CE0030A11E0010AC7
:1057C00001E038D00001030EAE6F00019B0EAF6FF9
:1057D000000EB06F0001B7930001080EB36F2AD01E
:1057E0000001030EAE6F00019B0EB16F000EB26F91
:1057F00021D020D01FD01ED00001030EAE6F0001BB
:10580000930EB16F000EB26F15D00001030EAE6F94
:105810000001930EAF6F000EB06F0001B79300014F
:10582000070EB36F07D00001030EAE6F22C49AF0CB
:1058300001D000D012000001936BC20E946F010ED4
:10584000956F966B976B986B080E996F8C6B8B6B43
:105850001A0E726E1E0E736E0401300E166F040E59
:10586000176F400E146F0401196F380E1A6F040E73
:105870001B6F880E186F0401780E1E6F040E1F6FC9
:10588000400E1C6F1200D9CFE6FFE1CFD9FF000117
:105890008B6B040118BF30D0FC0EDBCF10F0195118
:1058A000D880105403E2FC0E19C4DBFF00018B6B9F
:1058B000FC0EDB508B5D19E28B51EA6A380FE96E02
:1058C000040EEA22EF50E66E8B51E76EFD0EDBCF41
:1058D000E9FFFE0EDBCFEAFFE750E926000EEA22E1
:1058E000E552E750EF6E8B2BE3D70401400E196FA2
:1058F0001817187D880E181300018B5100D0E5523F
:10590000E7CFD9FF1200D9CFE6FFE1CFD9FFE652AA
:1059100000018C5101E02FD0DF6ADF2ADF50106ECA
:10592000116AFF0E101801E1115001E10BD0FD0EBC
:10593000DBCFE9FFDB2AFE0EDBCFEAFF01E3DB2A48
:10594000EF50EBE1DF50106E116AD950FD0FE96E98
:10595000FF0EDA20EA6E1050EE5E1150ED5AFD0E89
:10596000DBCF8DF0FE0EDBCF8EF0DFCF91F00001AC
:10597000926B010E8C6FE552E552E7CFD9FF120012
:10598000D9CFE6FFE1CFD9FFE65200018C5101E00B
:1059900030D0DF6ADF2ADF50106E116AFF0E101858
:1059A00001E1115001E10CD0FD0EDBCFF6FFDB2A47
:1059B000FE0EDBCFF7FF01E3DB2A0800F550EAE13A
:1059C000DF50106E116AD950FD0FE96EFF0EDA201C
:1059D000EA6E1050EE5E1150ED5AFD0EDBCF8DF0E9
:1059E000FE0EDBCF8EF0DFCF91F00001010E926F43
:1059F0008C6FE552E552E7CFD9FF1200D9CFE6FF11
:105A0000E1CFD9FFE65204011CBF6BD0030E0001A9
:105A10008C5D01E18C6B8C5101E163D0020E8C5DD9
:105A200006E104011D6B0001030E8C6F54D08C0540
:105A300052E1400E106E116A9151105C000E115827
:105A400003E2400EDF6E02D091C0DFFFDFCF1DF416
:105A5000DF50915D916F780E8F6F040E906F9205FD
:105A600015E1DF5012E08DC0F6FF8EC0F7FF080091
:105A7000F5508FC0E9FF90C0EAFFEF6E8F2B000E4C
:105A800090238D2B8E23DF06ECD713D0DF5011E04F
:105A90008DC0E9FF8EC0EAFFEF508FC0E9FF90C0D4
:105AA000EAFFEF6E8F2B000E90238D2B8E23DF06E7
:105AB000EDD7915110E104011D51106E116A400E95
:105AC000101801E1115004E10001020E8C6F03D0A7
:105AD0000001030E8C6F400E04011C171C7D880E04
:0C5AE0001C13E552E552E7CFD9FF12007D
:045AEC000401205140
:105AF000600BE842E842E842E842E842000901E07F
:105B000055D02151070A51E00B0A4FE0070A40E047
:105B1000010A2CE00B0A28E0020A26E0030A22E030
:105B2000080A12E0010A0EE00F0A0AE0030A01E087
:105B30003CD00001010EAE6F0001040EB66F36D0EE
:105B400036D834D090D832D00001010EAE6F0001AB
:105B5000B80EAF6F000EB06F0001B7930001010ED9
:105B6000B36F24D0A8D822D0F4D820D00001010EE1
:105B7000AE6F040124510001AF6FB06BB90EAF27B7
:105B8000000EB0230001B7930001010EB36F0ED0D9
:105B90000001010EAE6F04012451EA6AB90FE96EEB
:105BA000000EEA2222C4EFFF01D000D01200800EC6
:105BB0000401205D57E12351030A34E0010A10E09B
:105BC000030A01E04DD00001010EAE6F0001AC0EE2
:105BD000AF6F5F0EB06F120E0001B36FB46B40D0A9
:105BE0000001010EAE6F04012251F66EF76AD890E3
:105BF000F636F736650EF626600EF7220900F5CF69
:105C0000AFF00A00F5CFB0F0020E0001F76AAF2541
:105C1000F66EB051F7220900F5CFB3F00A00F5CFC8
:105C2000B4F01ED00001010EAE6F04012251F66ED9
:105C3000F76AD890F636F736690EF626600EF72228
:105C40000900F5CFAFF00A00F5CFB0F0AFC0F6FF16
:105C5000B0C0F7FF0800F5500001B36FB46B00D07F
:105C60000001B78312000001010EAE6F0F0EE66E49
:105C7000710EE66E0F0EE66EC1EC2FF0E552E552A6
:105C8000E552010EE66EB90EE66E000EE66EC1EC50
:105C90002FF0E552E552E55222C4B8F0040122513A
:105CA00004E10001050EB66F05D00001060EB66FC7
:105CB0001BEC2CF012000401286B296B040120510D
:105CC0001F0B020A14E0030A0EE0010A01E033D0C0
:105CD0000001010EAE6F040128810001B7A102D0BE
:105CE0000401288328D00001010EAE6F24D00001EA
:105CF000010EAE6F040124510F0B080DF350116A11
:105D0000000F106E040E11222451800B01E0010ED1
:105D1000040DF35000011024B16F000E1120B26F7A
:105D2000B1C0E9FFB2C0EAFFEF50040B03E0040189
:105D3000010E286F00D00001AE050AE10001280E17
:105D4000AF6F040EB06F0001B7930001020EB36F86
:105D500012000401220510E120511F0B00090CE183
:105D60000001010EAE6F030E0401215D03E100018D
:105D7000B78102D00001B791040122513BE12051CB
:105D80001F0B020837E124510F0B000933E000011B
:105D9000010EAE6F040124510F0B080DF350116A70
:105DA000000F106E040E11222451800B01E0010E31
:105DB000040DF35000011024B16F000E1120B26FDA
:105DC000030E0401215D07E1840EB1C0E9FFB2C0FA
:105DD000EAFFEF6E0FD024AF07D0400EB1C0E9FF4D
:105DE000B2C0EAFFEF6E06D0880EB1C0E9FFB2C0C4
:065DF000EAFFEF6E120055
:0A5DF6006DA60FD802D06DB613D8C9
:105E00000001B60508E16DBA06D0686A696A698062
:105E10006988020EB66F12006D6A696A6D860001AC
:105E2000010EB66F12006D6A696A0001B66B12004E
:105E300013EF2FF00001B65101E145D06850040B7B
:105E400004E06950040B01E047D86DB23CD06850C3
:105E5000010B04E06950010B01E06BD86850100B96
:105E600004E06950100B01E02FD86850400B04E0AB
:105E70006950400B01E049D86850200B04E069509C
:105E8000200B01E044D86850020B04E06950020B7B
:105E900001E04DD8030E0001B65D01E214D000010F
:105EA000BA6B040EBA5D0FE26850080B0BE0695044
:105EB000080B08E0E6EC29F0000901E16896000112
:105EC000BA2BEFD700D01200698468986D82A19A2E
:105ED000A08A0300A09A12006D92699468A402D06F
:105EE0006894FCD712000001B7A10ED06D926D84AA
:105EF0000001080EBB6F070EBC6FBB07000EBC5B3A
:105F0000BB51BC11FAE16D941200689C120070A0A4
:105F10000CD0800E0401005D07E1840E0401045DD5
:105F200003E104018C0E006F7090689A12006A6A97
:105F300012006A6A686A9F0E6B6E7B0E696E6E6AEB
:105F40000F0EE66E710EE66E0F0EE66E1AD8E55273
:105F5000E552E552160E706E68A608D068960000ED
:105F600000000000000000000000F6D76D9868EC0B
:105F70002BF00001B7910001B86B0001030EB66F62
:105F80001200D9CFE6FFE1CFD9FFFD0EDBCFE9FF4D
:105F9000FE0EDBCFEAFFFC0EDB5004E0EE6AFC0EE7
:0C5FA000DB06F9D7E552E7CFD9FF12006D
:045FAC0012010002DC
:105FB00002000008D8040A000100010200010902E1
:105FC0004300020100C03209040000010202010086
:105FD0000524001001042402020524060001052402
:105FE0000100010705820308000209040100020AFA
:105FF000000000070503024000000705830240007F
:1060000000040309042A0373007000720075007411
:1060100000200028007700770077002E00730070C2
:10602000007200750074002E0064006500290036BF
:1060300003550053004200340061006C006C002DD9
:106040000043004400430020003900200028007372
:1060500000700072007500740020003200300031C2
:106060000032002900BE5FBE5F016005602F6072D4
:0160700057D8
:0E6072002A0EF66E100EF76E000EF86E00018C
:106080000900F550A86F0900F550A96F03E1A86752
:1060900001D03DD00900F550A36F0900F550A46F61
:1060A0000900F550A56F09000900F550E96E0900D7
:1060B000F550EA6E090009000900F550A66F0900C5
:1060C000F550A76F09000900F6CFAAF0F7CFABF0A3
:1060D000F8CFACF0A3C0F6FFA4C0F7FFA5C0F8FF4F
:1060E0000001A65302E1A75307E00900F550EE6E48
:1060F000A607F8E2A707F9D7AAC0F6FFABC0F7FFDB
:10610000ACC0F8FF0001A807000EA95BBFD71200C2
:10611000D9CFE6FFDACFE6FFE1CFD9FFE2CFDAFF52
:10612000AC6AAB6AFD0EDBB0AC88DBA202D0AC8CF3
:10613000AB8CDBB4AC8EDBA602D0AB8801D0AB8AD3
:10614000DBB8AC849E98DBBAAB86DBAC02D09D8A10
:1061500001D09D9A9E9ADBAE02D09D8801D09D9879
:10616000FB0EDB50AF6EFB0EFC0EDBCF11F011C04F
:1061700010F0116A1050B06EAC8AAB8E949C948E65
:10618000AC50100B04E0AC50800B01E1948CE55254
:0A619000E5CFDAFFE7CFD9FF1200D8
:06619A00D9CFE6FFDACFC9
:1061A000E6FFE1CFD9FFE2CFDAFFE652E652E65250
:1061B000E652F8CF02F0F6CF03F00C0EBA6E050EE1
:1061C000F66EF76A300EF86E0800F550010B03E02A
:1061D000010EDB6802D0010EDB6A010EDB5002E02B
:1061E000949201D09396CA94FD0EDB50CB6ECA8474
:1061F00002C0F8FF03C0F6FF040EE15C02E2E16AB0
:10620000E552E16EE552E5CFDAFFE7CFD9FF1200A4
:10621000D9CFE6FFDACFE6FFE1CFD9FFE2CFDAFF51
:10622000FD0EDB50C96EC6AE02D0FF0E24D00F0E9D
:10623000C61408080FE00F0EC6140B080BE0C68842
:106240009EA6FED7C750040B03E1C750010B10E018
:10625000000E11D00F0EC614080804E00F0EC6146D
:106260000B0809E1C7B0FED703EC34F0C5AC02D08F
:10627000FE0E01D0000EE552E5CFDAFFE7CFD9FFE1
:0262800012000A
:0E62820004500902F3CF00F0F4CF01F00A023D
:10629000F3500126000EF420026E04500B02F3505E
:1062A0000226000EF420036E04500C02F350032665
:1062B00005500902F3500126F4500222000E032279
:1062C00005500A02F3500226F450032205500B0237
:1062D000F350032606500902F3500226F45003221D
:1062E00006500A02F350032607500902F350032612
:0262F00012009A
:0E62F200D9CFE6FFDACFE6FFE1CFD9FFE2CF4A
:10630000DAFF3F0EC716C66AFD0EDB50C612FB0E43
:10631000DB50C712FC0EDB50030A09E0010A04E05F
:10632000020A06E1C78C04D0C78CC68801D0C68893
:10633000FD0EDB50050A03E0010A03E1928A938215
:1063400001D093929380949EC68AE552E5CFDAFFFE
:06635000E7CFD9FF1200A7
:0A635600D9CFE6FFDACFE6FFE1CF72
:10636000D9FFE2CFDAFFE652E652FC0EDBCF10F0A7
:10637000FD0EDBCF11F0060ED89010361136E80472
:10638000FBE110C0DEFF11C0DDFF010EDB50BB6E74
:10639000DF50E840E8403F0B300B106ECF0EBA14D0
:1063A0001010BA6EE552E552E552E5CFDAFFE7CFBD
:0463B000D9FF1200FF
:0C63B400D9CFE6FFDACFE6FFE1CFD9FF3A
:1063C000E2CFDAFFE652E652FC0EDBCF10F0FD0E14
:1063D000DBCF11F0060ED89010361136E804FBE141
:1063E00010C0DEFF11C0DDFF010EDB50BE6EDF50BE
:1063F000E840E8403F0B300B106ECF0EBD1410107C
:10640000BD6EE552E552E552E5CFDAFFE7CFD9FFA1
:02641000120078
:0E641200D9CFE6FFDACFE6FFE1CFD9FFE2CF28
:10642000DAFFFD0EDB50360BB16EB36AB26AA19291
:10643000FD0EDBAE02D0A08201D0A092DBA002D084
:10644000B18E01D0B19EB180E552E5CFDAFFE7CF42
:04645000D9FF12005E
:0C645400D9CFE6FFDACFE6FFE1CFD9FF99
:10646000E2CFDAFFE652F20E0001BD17ABAC03D06B
:10647000BD91ABB0BD81ABB4BD85ABB2BD87AE50F5
:10648000DF6EDF50E552E552E5CFDAFFE7CFD9FF07
:026490001200F8
:0E649200D9CFE6FFDACFE6FFE1CFD9FFE2CFA8
:1064A000DAFFE652E652B250DF6E010EB3CFDBFFE9
:1064B000DECF10F0DDCF11F010C0F3FF11C0F4FFFC
:1064C000E552E552E552E5CFDAFFE7CFD9FF1200FA
:1064D000D9CFE6FFDACFE6FFE1CFD9FFE2CFDAFF8F
:1064E000E652E652D650DF6E010ED7CFDBFFDECF8D
:1064F00010F0DDCF11F010C0F3FF11C0F4FFE55232
:0E650000E552E552E5CFDAFFE7CFD9FF1200F2
:02650E00D9CFE3
:10651000E6FFDACFE6FFE1CFD9FFE2CFDAFFC688A8
:10652000FD0EDB50C96EC7A0FED7FC0EDB50C96E56
:10653000C7A0FED7C698C96AC7A0FED7C688C950EB
:0C654000E552E5CFDAFFE7CFD9FF1200EB
:04654C00D9CFE6FFBE
:10655000DACFE6FFE1CFD9FFE2CFDAFFE652E6522B
:10656000FC0EDBCFDEFFDBCFDDFF010EDB50B36EB9
:10657000DF50B26EE552E552E552E5CFDAFFE7CFE4
:04658000D9FF12002D
:0C658400D9CFE6FFDACFE6FFE1CFD9FF68
:10659000E2CFDAFFE652E652FC0EDBCFDEFFDBCFC6
:1065A000DDFF010EDB50D76EDF50D66EE552E552AF
:0C65B000E552E5CFDAFFE7CFD9FF12007B
:0465BC00D9CFE6FF4E
:1065C000DACFE6FFE1CFD9FFE2CFDAFFFD0EDB50F5
:1065D0007F0BD56ED76AD66AF294FD0EDBAE02D081
:1065E000F28A01D0F29AD58EE552E5CFDAFFE7CFF5
:0465F000D9FF1200BD
:0C65F400D9CFE6FFDACFE6FFE1CFD9FFF8
:10660000E2CFDAFFFD0EDB50FB0BCA6ECC6A9E9226
:10661000FD0EDBAE02D09D8201D09D92CA84E55270
:0A662000E5CFDAFFE7CFD9FF120043
:06662A0005D810D820EC99
:1066300009F0FCD712000F0EC112140E6F6E00018C
:10664000B66B0001B76B0001B86B1CEF08F0FBECF8
:0E6650002EF06FBE02D01AEC2FF0FEEF2CF0F1
:02665E00D9CF92
:10666000E6FFDACFE6FFE1CFD9FFE2CFDAFFC68857
:10667000FD0EDB50C96EC6AE02D0FF0E03D0C7A020
:10668000FED7000EE552E5CFDAFFE7CFD9FF1200C3
:10669000D9CFE6FFDACFE6FFE1CFD9FFE2CFDAFFCD
:1066A0000C0EBD129494CA94FD0EDB50CB6ECA84BE
:1066B000E552E5CFDAFFE7CFD9FF1200949412003C
:1066C000D9CFE6FFDACFE6FFE1CFD9FFE2CFDAFF9D
:1066D0003F0EC716C66AFD0EDB50C612949E9392FB
:1066E0009380C68AE552E5CFDAFFE7CFD9FF1200E3
:1066F000FF0EE350156EEF0E01D0F30EE76EE72E9E
:106700007FEF33F00C0E146EE76AE72E85EF33F05F
:0E671000142E84EF33F0152E7DEF33F01200BF
:02671E00D9CFD1
:10672000E6FFDACFE6FFE1CFD9FFE2CFDAFFACAC8C
:1067300004D0AC900001BDB3AC80FD0EDB50AD6E5B
:0C674000E552E5CFDAFFE7CFD9FF1200E9
:04674C00D9CFE6FFBC
:10675000DACFE6FFE1CFD9FFE2CFDAFFE652C95048
:10676000DF6E9E96C96A9EA6FED7C950E552E552D5
:0A677000E5CFDAFFE7CFD9FF1200F2
:06677A00FF0EE350156E56
:10678000480E01D04C0EE76EE72EFED7E76AE72EE3
:0A679000FED7152EF7D70000120007
:06679A00000EF36E00EE9C
:1067A00000F0080E01D81200EA6002D0EE6AFCD7B1
:0A67B000F350E9601200EE6AFCD716
:0667BA0013EE00F023EED7
:1067C00000F0F86A0F9C39EC30F014EC34F015EC62
:0667D00033F0FBD71200BC
:0A67D6000F0EC614080804E00F0EB1
:1067E000C6140B0801E1C586C7A0FED7C950120028
:1067F000FF0EE350E84E1200000000D000D000D0A1
:06680000E82EFAD7120099
:0A6806001F0EC514FDE1C750040B7E
:04681000FAE1120097
:06681400B190A0921200F9
:06681A00D59EF29A120067
:04682000BA6A12003E
:04682400BD6A120037
:0268280012005C
:06682A0000000000000068
:106830000210007FFFC7000000000000640000009D
:1068400000323232323232323200003232323232BE
:05685000323232E803C2
:020000040030CA
:0100000024DB
:010001000EF0
:0100020038C5
:010003001EDE
:010005008179
:010006008178
:00000001FF
